:020000040800F2
:100000007804002005010008851700080D0E00087F
:100010008117000839070008F31A000800000000E3
:10002000000000000000000000000000411800086F
:10003000790700080000000087170008431800082F
:100040001F0100081F0100081F0100081F01000810
:100050001F0100081F0100081F0100081F01000800
:100060001F0100081F0100081F0100083D070008CC
:100070001F0100081F0100081F0100081F010008E0
:100080001F0100081F0100081F0100081F010008D0
:100090001F0100081F0100081F0100081F010008C0
:1000A000AD190008DD190008CD190008BD190008B8
:1000B0001F0100081F0100081F0100081F010008A0
:1000C0001F0100081F0100081F0100081F01000890
:1000D0001F0100081F0100081F0100081F01000880
:1000E0001F0100081F0100081F010008DFF810D0E1
:1000F00000F0E8FA004800471D240008AFF3008034
:10010000780400200648804706480047FEE7FEE7DF
:10011000FEE7FEE7FEE7FEE7FEE7FEE7FEE7FEE7B7
:1001200055190008ED000008202A04DB203A21FAC6
:1001300002F00021704721FA02F3D040C2F1200200
:100140009140084319467047D2B201E000F8012BF4
:10015000491EFBD270470022F6E710B513460A4647
:1001600004461946FFF7F0FF204610BD2DE9F04D7B
:1001700081EA030404F0004B21F0004514464FF0DF
:10018000000A23F0004150EA050220D054EA01029F
:100190001DD0C5F30A570246C5F31303C1F313007C
:1001A000C1F30A5640F4801543F48013A7EB060808
:1001B000101BD64608F2FD3873EB050002D308F198
:1001C000010801E092185B41B8F1000F03DA00204A
:1001D0000146BDE8F08D00204FF4801106468446AC
:1001E0000EE0171B73EB050705D3121B63EB05032A
:1001F00006434CEA010C49084FEA300092185B4173
:1002000050EA0107EDD152EA030012D082EA04005D
:1002100083EA0501084305D0101BAB4106D2012239
:10022000002306E000224FF0004302E06FF00102DD
:1002300053101AEB06004CEB085110EB0A0041EB8F
:100240000B01BDE8F04D00F096B896230022114650
:1002500000F063B800F0004230F000400AD0C10D59
:1002600001F56071C0F3160042EA0151C20840076F
:100270001143704700200146704730B50B460146D8
:1002800000202022012409E021FA02F59D4205D335
:1002900003FA02F5491B04FA02F52844151EA2F1DF
:1002A0000102F1DC30BD2DE9F05F054600209246E9
:1002B0009B4688460646814640241BE02846414628
:1002C00047462246FFF730FF53465A46C01A91412F
:1002D00010D311461846224600F006FA2D1A67EB95
:1002E00001084F4622460120002100F0FDF917EBDE
:1002F00000094E41201EA4F10104DFDC48463146CE
:100300002A464346BDE8F09F0029A8BF7047401C1D
:10031000490008BF20F00100704710B4B0FA80FC1B
:1003200000FA0CF050EA010404BF10BC704749B158
:10033000CCF1200421FA04F411FA0CF118BF0121C8
:1003400021430843A3EB0C01CB1D4FEA00614FEAA8
:10035000102042BF002010BC704700EBC350104477
:100360000029A4BF10BC7047401C490008BF20F002
:10037000010010BC704710B5141E73F1000408DAB8
:10038000401C41F1000192185B411A4301D120F059
:10039000010010BD2DE9F04D92469B4611B1B1FA16
:1003A00081F202E0B0FA80F22032904600F09CF92F
:1003B00004460F4640EA0A0041EA0B0153465A46FA
:1003C000084313D0114653EA010019D0C8F1400286
:1003D0005046FFF7A9FE05460E465046594642468E
:1003E00000F082F9084305D0012004E02046394698
:1003F000BDE8F08D0020054346EAE0762C43374304
:100400000A986305E40AA0EB08000022FD0A44EA0A
:1004100047540A3002D500200146E9E701051019CA
:100420006941DDE9084500196941BDE8F04DA2E7E1
:100430002DE9FE4F804681EA0300C00F0C46009074
:1004400021F0004123F00045B8EB0200A94105D29C
:100450004046214690461C460B46024623F000408B
:10046000104347D0270DC7F30A00C3F30A51029087
:10047000401A019040286BDAC3F3130040F4801B4C
:100480000098924620B10023D2EB030A63EB0B0BDA
:1004900001985946C0F14002504600F025F9064641
:1004A0000D4650465946019A00F02DF910EB080010
:1004B0006141002487EA115284EAE7731A4340D06D
:1004C000009A62B3019A012A4FEA075215DC001B19
:1004D00061EB02014FF0004202EA0752CDE900420F
:1004E000001C41F5801132462B46FFF753FF03B045
:1004F000BDE8F08F40462146F9E7001B61EB0201A1
:10050000001C41F5801300185B412018A2F500176C
:1005100047EB030140EAD570B6196D4111E06D0853
:100520004FEA360645EAC0754FEA0752001B61EBF9
:100530000201001C41F5801149084FEA3000001902
:10054000514132462B4603B0BDE8F04FFFF713BFD1
:100550000098012240000023D0EB020263EBE0731D
:10056000009821464FEAE074B8EB000061EB04010B
:10057000E9E783F000435BE781F0004158E72DE9AC
:10058000FE4F81EA030404F0004421F0004100948E
:100590004FF0000B23F0004350EA01045ED052EA12
:1005A00003045BD0C3F30A54C1F30A552C44A4F2EC
:1005B000F3340194A0FB0254C1F3130141F4801100
:1005C000C3F3130343F4801301FB024400FB034E07
:1005D000840A970A44EA815447EA8357A4FB0768D0
:1005E00002958D0A05FB07854FEA932C04FB0C54FA
:1005F0002705029D4FEA065847EA1637B5EB08056E
:100600006EEB070C870E920E47EA811742EA8312BF
:10061000A7FB0201B6EB0B0164EB00042B0D43EAD0
:100620000C335E1844EB1C50DA465146E7FB0201DE
:10063000C5F313044FEA0B3343EA14534FEA043271
:10064000019C43EA0603A4F10C040294009CCDE94A
:1006500000B4FFF79FFE03B0BDE8F08F0020014615
:10066000F9E7C1F30A52C1F3130140F2FF3341F439
:1006700080119A4202DA00200146704740F233436B
:100680009A42A2F2334202DC5242FFF74DBD00F023
:100690002BB8000030B5041E71F1000404DB4FF0EC
:1006A0000044404264EB0101141E73F1000405DBB9
:1006B0001C464FF00043524263EB0403994208BFCB
:1006C000904230BD064C074D06E0E06840F0010363
:1006D00094E8070098471034AC42F6D3FFF70AFDC0
:1006E0003027000850270008202A04DB203A00FAAF
:1006F00002F1002070479140C2F1200320FA03F379
:10070000194390407047202A06DBCB17203A41FA64
:1007100002F043EAE07306E041FA02F3D040C2F18E
:10072000200291400843194670470000012001490A
:10073000087070470C00002000BFFEE710B500BF36
:100740000C480068C0F3400038B1FFF7EFFF00BF6E
:1007500002200849486000BF00BF00BF054800688C
:10076000C0F3C00028B100BF08200249486000BFA4
:1007700000BF10BD000002407047000001B50948ED
:1007800000680949B0FBF1F00921B0FBF1F00099D4
:100790004843009000BF0098411E00910028FAD104
:1007A00008BD00001C00002040420F0001B50948B0
:1007B00000680949B0FBF1F00099484342F2283142
:1007C000B0FBF1F0009000BF0098411E009100289E
:1007D000FAD108BD1C00002040420F007047000005
:1007E00070B5044600F010F80546B4F1FF3F02D0A2
:1007F00004480078044400F007F8401BA042FAD3F4
:1008000070BD000020000020014880687047000093
:1008100020000020024881680278114481607047FE
:100820002000002010B50748016841F01001016068
:10083000032000F097F8002000F006F800F026F8FA
:10084000002010BD0020024070B504460D4D4FF44D
:100850007A712878B1FBF0F00B490968B1FBF0F030
:1008600000F092F808B1012070BD102C07D20022D0
:100870002146501E00F042F86C60002070BD01203F
:1008800070BD0000200000201C00002008B500BF43
:100890001148806940F001000F498861084680696D
:1008A00000F00100009000BF00BF00BF0846C06913
:1008B00040F08050C8610846C06900F08050009048
:1008C00000BF00BF00BF0549486820F0E06040F06D
:1008D0000070486000BF08BD0010024000000140E9
:1008E00000280ADB00F01F01012202FA01F1400991
:1008F000800000F1E020C0F80011704710B4184BE0
:100900001B68C3F30223C3F1070CBCF1040F01D928
:100910004FF0040C1C1D072C01D2002300E0DB1E4D
:10092000012404FA0CFCACF1010C0CEA0101994021
:1009300004FA03F35B1E1A401143002806DB00F1A2
:10094000E020090180F8001410BC704700F00F008F
:1009500000F1E020090180F8141D10BC7047000070
:100960000CED00E000F00700064A11684FF6FF03A7
:10097000194041EA002040F0FD7040F080601060B6
:10098000704700000CED00E0401EB0F1807F01D305
:10099000012070474FF0E0214861044AF0201070B8
:1009A00000208861072008610020704723ED00E0E7
:1009B0007047704730B490F83C20012A30D00124B1
:1009C00080F83C40022280F83D200268D2F804C042
:1009D00093682CF0700C0D6845EA0C0CC2F804C04A
:1009E0000268A2F1804CBCF5963C0CD0B2F1804F6D
:1009F00009D0A2F1804CBCF5806C04D0A2F1804CEF
:100A0000BCF5006C04D123F0800349681943916060
:100A100080F83D40002180F83C1030BC0020704739
:100A200030BC0220704710B50446002C03D094F867
:100A30003D0010B107E0012010BD002084F83C000B
:100A4000204600F01FF8022084F83D00211D206898
:100A500000F0CCFF012084F8460084F83E0084F8C2
:100A60003F0084F8400084F8410084F8420084F894
:100A7000430084F8440084F8450084F83D000020D9
:100A800010BD000038B504461949206888422DD1B0
:100A900000BF1848806940F4006016498861084624
:100AA000806900F40060009000BF00BF0022114682
:100AB0001820FFF723FF1820FFF712FF002211462E
:100AC0001920FFF71BFF1920FFF70AFF002211462C
:100AD0001A20FFF713FF1A20FFF702FF002211462A
:100AE0001B20FFF70BFF1B20FFF7FAFE38BD0000AD
:100AF000002C01400010024070B5044694F83C0000
:100B0000012818D0012584F83C50022084F83D00CB
:100B10002068826822F0770222F47F4282600868AF
:100B2000502832D00EDC20284DD006DC00284AD0D8
:100B300010284DD147E0022070BD302843D0402816
:100B400046D136E060282AD0702806D0B0F5805F04
:100B50003ED0B0F5005F3BD10BE0CB684A688968B6
:100B6000206800F08EFF2068816841F07701816085
:100B70002EE0CB684A688968206800F082FF206810
:100B8000816841F48041816022E0CA684968206838
:100B900000F08AFF5021206800F07EFF18E0CA684C
:100BA0004968206800F093FF6021206800F074FF1E
:100BB0000EE0CA684968206800F076FF402120688E
:100BC00000F06AFF04E022680146104600F064FF6E
:100BD00084F83D50002084F83C0070BD704770B52B
:100BE0000446206801694FF0000511F0020F17D08C
:100BF000C16811F0020F13D0E91E016101202077B6
:100C00002068806910F0030F03D02046FFF7E6FF4D
:100C100005E0204600F09DF8204600F09BF825777F
:100C20002068016911F0040F18D0C16811F0040F99
:100C300014D06FF0040101610220207720688069E0
:100C400010F4407F03D02046FFF7C8FF05E02046A0
:100C500000F07FF8204600F07DF8257720680169D4
:100C600011F0080F18D0C16811F0080F14D06FF000
:100C700008010161042020772068C06910F0030F8B
:100C800003D02046FFF7AAFF05E0204600F061F8F8
:100C9000204600F05FF825772068016911F0100FF9
:100CA00018D0C16811F0100F14D06FF0100101615D
:100CB000082020772068C06910F4407F03D02046C8
:100CC000FFF78CFF05E0204600F043F8204600F0D7
:100CD00041F825772068016911F0010F09D0C1683A
:100CE00011F0010F05D06FF001010161204600F005
:100CF0008BF82068016911F0800F09D0C16811F0EC
:100D0000800F05D06FF0800101612046FFF750FE93
:100D10002068016911F0400F09D0C16811F0400F3F
:100D200005D06FF040010161204600F06EF82068A8
:100D3000016911F0200F0BD0C16811F0200F07D00E
:100D40006FF0200101612046BDE87040FFF731BE21
:100D500070BD70477047000010B50446002909D0E7
:100D600004290AD008290BD094F8410001280AD0A0
:100D7000012010BD94F83E00F8E794F83F00F5E735
:100D800094F84000F2E7022089B3042933D00829FF
:100D900034D084F841000122206800F063FE194934
:100DA0002068884203D1426C42F4004242642068C9
:100DB000884212D0B0F1804F0FD0A0F18041B1F540
:100DC00080610AD0A0F18041B1F5006105D00168D1
:100DD00041F001010160002010BD816801F00701B0
:100DE0000629F8D0016841F001010160F3E7FFE74F
:100DF00084F83E00CFE784F83F00CCE784F8400059
:100E0000C9E70000002C01407047704700BFFEE7B3
:100E1000F8B504460E46154600BF2048006820F489
:100E200000601E49086000BF0815216821F4806138
:100E30000143216000BF00BF206840F48070206043
:100E400000BF00BF00BF606900F001000028F9D0BA
:100E500060692946204600F0A1FA00BF00BF606922
:100E6000C0F340000028F9D000BF6069009000BFC7
:100E7000A069009000BF00BF3146204600F08EFA06
:100E800000BF00BF6069C0F3C0100028F9D000BFE8
:100E9000206840F40070206000BFF8BD005400409E
:100EA00010B50021012001F0E9FB022000F092FAC8
:100EB00010BD70B504460D4635B1012D0AD0022D86
:100EC00011D0032D21D117E044F08000002101F062
:100ED000D5FB1AE004F14001C9B241F080000021C5
:100EE00001F0CCFB11E004F11401C9B241F0800023
:100EF000002101F0C3FB08E004F15401C9B241F044
:100F00008000002101F0BAFB00BF00BF70BD70B5CA
:100F10000446002505E0605D012101F0AFFB681C7F
:100F2000C5B2605D0028F6D170BD000010B5044662
:100F30004E2221460148FFF76BFF10BD00540040D0
:100F400010B5322000F046FA0020FFF7EFFF2D49E0
:100F5000097821F002012B4A11700846FFF7E6FFDD
:100F6000642000F037FA032001F0AEFB41F2941048
:100F7000FFF704FC032001F0A7FB41F29410FFF7F8
:100F8000FDFB032001F0A0FB41F29410FFF7F6FBFC
:100F9000022001F099FB0021082001F06FFB0021E5
:100FA0000C2001F06BFB012000F014FA002101205D
:100FB00001F064FB022000F00DFA0021062001F090
:100FC0005DFB012000F006FA00210C2001F056FB29
:100FD0000021022001F052FB022000F0FBF9094938
:100FE000097841F00801074A11700846FFF79EFF93
:100FF0000449097821F00201024A11700846FFF7FE
:1010000095FF10BD0000002000220E4B9B6803F0EE
:101010000103DFF834C0DCF808C00CF0010C53EA1F
:101020000C0302D0012210467047096829B14368B9
:1010300023F4702319434160F5E7416821F47021DE
:101040004160F0E70024014000280140002283684D
:1010500003F00103002B02D00122104670474368C1
:10106000D1F804C023F4807343EA0C03436083681F
:10107000096823F4006319438160EEE710B400238C
:101080004A68D0F808C00CF0010CBCF1000F03D086
:10109000012310BC184670475AB1D1F808C042EA83
:1010A0000C02D0F804C02CF4684C42EA0C024260F6
:1010B00003E0426822F468424260D1F80CC00A683A
:1010C000846842EA0C02D1F810C024F4817424F43C
:1010D00060244CEA040C42EA0C0282604968C26A4D
:1010E00022F470021143C162D3E770B501F4407479
:1010F0004FF4407595FAA5F5B5FA85F5EC4000F189
:101100002C0505EB84031C6801F01F061F25B54064
:10111000AC4302F01F0501F01F06B5402C431C60D4
:1011200070BD70B501F000744FF0007595FAA5F52B
:10113000B5FA85F5EC4000F10C0505EB84031C685D
:1011400001F0F8754FF0F87696FAA6F6B6FA86F63C
:10115000F5400726AE40B44301F0F8754FF0F8763D
:1011600096FAA6F6B6FA86F6F54002FA05F52C438D
:101170001C6070BD08B5054989690143034A916146
:10118000114689690140009100BF08BD001002406E
:101190002DE9F04F0A68C2F30F2C9CFAACF2B2FAB8
:1011A00082F23CFA02F372D04FF001094FF0011ABB
:1011B0004FF00F0B03264FF0040E09FA02F313EA67
:1011C0000C0F60D0082A03D240F20113934005E0CF
:1011D000A2F108030AFA03F343F080634C68082C79
:1011E0000BD10C69C5681F0A97FAA7F7B7FA87F7FA
:1011F00025EA1325BC402C43C4604D6800EB136402
:1012000093FAA3F8B8FA88F84FEA880827680BFA27
:1012100008F827EA080793FAA3F8B8FA88F84FEA1B
:10122000880805FA08F52F4327604D68012D01D085
:10123000092D28D18D6893FAA3F8B8FA88F84FEAF7
:10124000880806FA08F827EA080793FAA3F8B8FA14
:1012500088F84FEA880805FA08F53D432560CF680D
:1012600093FAA3F8B8FA88F84FEA88080EFA08F853
:1012700093FAA3F3B3FA83F39B0025EA080507FA70
:1012800003F32B432360521C3CFA02F395D1002058
:10129000BDE8F08F30B585B004460D46206820F0DB
:1012A00001002060684600F07FF80298AB6869682A
:1012B000384AB0FBF2F2D4F804C02CF03F0C4CEAF0
:1012C000020CC4F804C0DFF8D0C0614502D802F1B6
:1012D000010209E04FF4967C02FB0CF24FF47A7C99
:1012E000B2FBFCF202F10102D4F820C02CF03F0C5A
:1012F00042EA0C0222621DD973B101EBC10202EB7A
:101300000111B0FBF1F21205120D11D0B0FBF1F09A
:10131000184340F4004018E001EB4101B0FBF1F24A
:101320001205120D02D0B0FBF1F0F1E70120EFE75A
:101330000120EDE74900B0FBF1F2C2F30B02042AF1
:1013400001D2042001E0B0FBF1F0E16921F0FF01DE
:1013500021F44F410843E061E9686869A2680843E5
:1013600022F0FF0222F403421043A06028682168A3
:1013700021F01A0108432060206840F0010020603D
:101380002869216821F480610843206005B00020AD
:1013900030BD000040420F00A0860100026922F02B
:1013A000FF020A430261704700B5034600F016FAD7
:1013B000186000F0E9F9586000F0F4F99860586896
:1013C00000F0FEF9D86000BD0149086070470000D8
:1013D0001C00002081B04FF0E0210A690092B0F1BA
:1013E000FF3F00D0401C002806D00A6912F4803F5D
:1013F00000D0401E0028F8D101B0704730B58DB044
:1014000000200B900C900A90142105A8FEF7A3FE73
:1014100014216846FEF79FFE4FF40070FFF7AAFE06
:101420000420FFF7A7FE40F2066000900020019024
:1014300069464848FFF7ACFE4748012100224B1E91
:10144000464CE35CC35844F21004A34313434C1EC0
:10145000424D2C5D035100BF00BF4B1E2C46E35C88
:10146000C35823F4405313434C1E2C5D035100BF5B
:1014700000BF4B1E2C46E35CC35823F020031343EC
:101480004C1E2C5D035100BF00BF4B1E2C46E35C7D
:10149000C35823F0400313434C1E2C5D035100BF7F
:1014A00080224B1E2C46E35CC35823F08003134379
:1014B0004C1E2C5D035100BF82154B1E2C46E35C75
:1014C000C35823F4407313434C1E2C5D035100BFDB
:1014D00002154B1E2C46E35CC35823F440631343B0
:1014E0004C1E2C5D035100BF00200B9008020C9095
:1014F0000BA91B48FFF7AAFD00200A900AA918486B
:10150000FFF782FD4FF4602005904FF480100690A5
:101510000020079008904FF48070099005A91048AA
:10152000FFF7ACFD0F4A4FF400710D48FFF7DDFDEA
:1015300002220C490A48FFF7F4FD0B4A40F205214C
:101540000748FFF7D2FD022207490548FFF7E9FDEA
:101550000DB030BD00080140000002401027000817
:101560000024014001003002020060022DE9F84130
:1015700001202F49496901432D4A516111464969AA
:101580000140009100BF00BF0B212A4B1B68C3F331
:101590000220002425460346C3F1070CBCF1040FCA
:1015A00002D94FF0040C01E0C3F1070C674603F1C8
:1015B000040CBCF1070F02D24FF0000C01E0A3F1C4
:1015C000030C66464FF0010C0CFA07FCACF1010C61
:1015D0000CEA040C0CFA06FC4FF0010808FA06F8B5
:1015E000A8F1010808EA05084CEA080200BF002932
:1015F00004DB1007030E1048435407E01007040EE5
:101600000C480C3001F00F031B1FC45400BF0B200B
:10161000002809DB00F01F020121914042099200DD
:1016200002F1E022C2F8001100BFBDE8F88100001D
:10163000001002400CED00E000E400E010B52020B6
:10164000FFF798FD0420FFF795FD0820FFF792FDB6
:1016500010BD000000B58DB0182107A8FEF77BFD76
:10166000142102A8FEF777FD0820FFF783FD4CF256
:10167000C0000290092003900320049004200590EC
:1016800002A92048FFF784FD4FF400101E49C969E4
:1016900001431D4AD1611146C9690140019100BF52
:1016A00000BF00BF1948C06820F001001749C8609A
:1016B00000BF00BF0846006820F04000086000BF7F
:1016C00000BF0846006820F08000086000BF0020CE
:1016D00007900F480890002009900A9008150B9079
:1016E00000010C9007A90948FFF7D4FD0020074925
:1016F000C96821F0FE010143044AD16000BF0DB06A
:1017000000BD0000000C01400010024000540040E9
:10171000A086010000B587B00020039004900590DA
:1017200006900190029014481449086040204860D7
:10173000002112488160FF21C160002101614161E7
:101740008161FFF770F908B1FFF748F84FF4805056
:10175000039003A90948FFF7CFF908B1FFF73EF856
:1017600000200190029001A90448FFF723F908B175
:10177000FFF734F807B000BD002C01402C0000201A
:1017800000BFFEE7704770470449496801F0F00167
:10179000034A0909515CC84070470000001002402C
:1017A000172700080449496801F4E061034A02EB85
:1017B00011210978C840704700100240272700080F
:1017C0000449496801F46051034A02EBD1210978C8
:1017D000C8407047001002402727000806484068AC
:1017E00000F00C010548002905D0042903D0082980
:1017F00001D100F005B870470010024000127A00D5
:101800000C4A506800F480310B48002909D0B1F52A
:10181000803F06D15068C0F340400849401CB1FBEE
:10182000F0F0516801F47011022202EB914148433B
:10183000704700000010024000093D0000127A00CD
:10184000704710B5FEF7E6FF10BD000010B502208E
:101850003D49096821F0070101433B4A116000BF7F
:1018600000BF00BF3848006800F007000228F8D128
:1018700000BF3648006840F480303449086000BF3B
:1018800000BF00BF31480068C0F340400028F8D0D6
:101890004FF480304FF4E0112C4A526822F47C124D
:1018A00000F440330B431A43284B5A6000BF00BF7B
:1018B0001846006840F080701946086000BF00BFFD
:1018C00000BF22480068C0F340600028F8D0002024
:1018D0001E49496821F0F00101431C4A516000BFD4
:1018E00010151146496821F4E0610143516000BFC1
:1018F00000201146496821F460510143516000BF46
:1019000002201146496821F003010143516000BFE4
:1019100000BF00BF0D48406800F00C000828F8D157
:101920000B48FFF751FD0020FEF78EFF08B1FEF7D0
:1019300055FF4FF400400549496821F440410143F7
:10194000024A516000BF10BD00200240001002405A
:1019500000A24A041148006840F001000F490860E5
:10196000084640680E4908400C494860084600682F
:101970000C490840094908600846006820F48020A6
:1019800008600846406820F4FE0048604FF41F00DD
:101990008860C803044908607047000000100240D6
:1019A0000000FFF8FFFFF6FE08ED00E010B502486A
:1019B000FFF715F910BD00002C00002010B50248FB
:1019C000FFF70DF910BD00002C00002010B50248F3
:1019D000FFF705F910BD00002C00002010B50248EB
:1019E000FFF7FDF810BD00002C00002030B40268A5
:1019F000194B1A4CDFF868C0984206D0B0F1804FFE
:101A000003D0A04201D0604503D122F070024D689E
:101A10002A43984206D0B0F1804F03D0A04201D0B3
:101A2000604505D122F44072D1F80CC04CEA0202A4
:101A3000D1F814C022F0800242EA0C0202608A68E7
:101A4000C2620A688262984201D109690163012178
:101A5000416130BC70470000002C01400004004090
:101A60000008004001F01F0101238B40D0F820C086
:101A70002CEA03030362036A02FA01F119430162CB
:101A80007047D0F808C02CF47F4C42EA032211437F
:101A900041EA0C0181607047826822F070021143B4
:101AA00041F0070181607047036AD0F820C02CF034
:101AB000010CC0F820C0D0F818C02CF0F00C4CEA93
:101AC000021223F00A031943826101627047036A1C
:101AD00023F010030362D0F818C0036A2CF4704C92
:101AE0004CEA023223F0A00343EA01118261016251
:101AF000704700BFFEE700000FB4054B10B503A907
:101B0000044A029800F0EEF810BC5DF814FB0000E7
:101B1000F5230008100000200FB4084B10B504A9ED
:101B200002AA039800F0DEF8044602A9002000F0A3
:101B30005CFC204610BC5DF814FB0000EB230008A1
:101B400002E008C8121F08C1002AFAD17047704786
:101B5000002001E001C1121F002AFBD170470000E4
:101B60002DE9FF5F82B00021DDE90430020DDDF8D0
:101B700040B0034318D044F61050A2F2FF32424363
:101B80001514119801281FD0A5EB0B00401C5FEA2B
:101B9000000A4FF000064E4FDFF83891B04650462D
:101BA00015D5CAF1000413E0119801244AA30128B5
:101BB00001D16FEA0B010298119AC0E90031C0E926
:101BC000024206B0BDE8F09FCBF10000DFE704461B
:101BD0000021404A491842EB0450CDE9001012E0C0
:101BE000E00707D032463B4640464946FEF7C7FC71
:101BF0008046894632463B4610461946FEF7BFFCF2
:101C000006460F466410002CEAD1DDE90401DDE947
:101C10000023BAF1000F06DAFEF7B1FC42464B464C
:101C2000FEF7ADFC05E0FEF7A1FA42464B46FEF793
:101C30009DFA04460E460022284BFEF72BFD03D8E2
:101C40004FF0FF30014607E00022254B2046314689
:101C5000FEF7EEFBFEF705FD102409E0002C0ADB81
:101C60000A220023FEF71FFB039B30321A55641E25
:101C700050EA0102F2D1641C039AC4F11103144426
:101C8000119A012A03D0012208430DD10AE008432A
:101C900004D000204FF0110B119072E7A3EB0B055D
:101CA0006D1E0DE05B4504DD4FF0000205F10105FE
:101CB00004E003DA4FF00002A5F10105002AECD0A0
:101CC00002981199C0E90231C0E9004579E70000A6
:101CD000000014400000F03F300000000000F0431E
:101CE0000000E03F2DE9FF4F95B09A468846064632
:101CF0000025EEE1252877D100242746F94A012165
:101D0000039400E0044316F8013F203B01FA03F07E
:101D10001042F7D130782A2811D06FF02F03307895
:101D2000A0F13002092A16D8039A44F0020402EB0B
:101D3000820203EB42021044761C0390EFE758F84E
:101D4000042B0392002A03DA504244F40054039017
:101D500044F00204761C30782E2816D116F8010FB4
:101D600044F004042A280DD06FF02F023078A0F13F
:101D70003003092B09D807EB870302EB4303C7188D
:101D8000761CF3E758F8047B761C30786C280FD06B
:101D900006DC4C2817D068280DD06A2814D104E03E
:101DA000742810D07A280FD10DE044F400140AE012
:101DB00044F4801401E044F440147278824202D169
:101DC00004F58014761C761C307866280BD013DC62
:101DD000582877D009DC002875D04528F6D0462849
:101DE000F4D047281AD193E118E0632835D064284D
:101DF00079D0652812D18BE1702873D008DC672870
:101E0000F1D069286FD06E280DD06F2806D1ACE0D4
:101E100073282CD0752874D0782853D0524617993F
:101E200090476D1C54E1C4F30250022809D00328E6
:101E30000DD0D8F8001004280DD00D6008F104086A
:101E400046E1D8F80010EA17C1E90052F6E7D8F8E1
:101E500000100D80F2E70D70F0E718F8041B8DF804
:101E6000001000208DF80100EB46012003E058F837
:101E700004BB4FF0FF3061074FF0000102D40DE0CA
:101E800009F101018946B9420FDA8145F8DB1BF8F7
:101E900009100029F4D108E009F1010189468142C5
:101EA000FADB1BF809100029F6D103985346A0EB82
:101EB000090721463846179A00F080FA284400EBBB
:101EC000090507E044E008E10DE01BF8010B52466C
:101ED00017999047B9F10109F7D253462146384680
:101EE000179AF2E039E00A21C4F302524FF0000BD6
:101EF0000091022A06D058F8040BC117032A09D012
:101F00000AE023E008F1070020F00702F2E80201EE
:101F1000904605E000B2C117042A01D140B2C117B2
:101F2000002906DA0A460021404261EB02012D2217
:101F300002E0220504D52B228DF80420012203E0C3
:101F4000E20701D02022F7E7914657E00A2100E09E
:101F500010214FF0000B00910BE010214FF0000B0F
:101F600044F004040827009103E008204FF0000B20
:101F70000090C4F30252022A05D058F8040B002145
:101F8000032A08D008E008F1070020F00702F2E871
:101F90000201904603E080B2042A00D1C0B24FF0A3
:101FA000000922072AD53278702A07D0DDF800C050
:101FB0008CF0100C5CEA0B0C05D00EE040228DF882
:101FC0000420012208E050EA010306D030238DF8F6
:101FD00004308DF8052002229146009B83F008030F
:101FE00053EA0B030AD150EA010201D1620705D579
:101FF00030228DF804204FF001097F1E3278582AD4
:1020000004D039A20C920CAA02920BE03BA2F9E791
:102010005B46009AFEF747F90C9B9B5C029A521EA6
:102020000292137050EA0102F2D1029804A9081A30
:1020300000F1200B600702D524F4803400E0012772
:102040005F4502DDA7EB0B0000E0002000EB0B0179
:10205000009003984944401A0390E00306D4534685
:102060002146179A039800F0A9F90544002706E0D5
:1020700001A85246C05D179990476D1C7F1C4F45C3
:10208000F6DBE0030CD553462146179A039800F07F
:1020900095F9054404E030205246179990476D1C8D
:1020A0000099481E00900029F5DC08E0029802998A
:1020B00052460078491C0291179990476D1CBBF15C
:1020C0000001ABF1010BF1DC5BE100F065F90544C7
:1020D000761C307800287FF40DAE19B02846BDE894
:1020E000F08F0000092801003031323334353637A3
:1020F0003839616263646566000000003031323354
:1021000034353637383941424344454600000000F3
:10211000600700D4062708F1070020F00700F0E868
:102120000223804603F0004C5FEA0C0001D097A028
:1021300009E0200501D596A005E0E00701D095A0B3
:1021400001E0AFF24C001390307823F00043652893
:102150000CD006DC452809D046281DD047287FD161
:102160003BE0662818D067287AD136E00021112F8D
:1021700001DB112000E0781CCDE9000104A90CA8C6
:10218000FFF7EEFCDDE90D010C9A4FF0000B07F1B3
:102190000109109200914EE04FF000400097CDE908
:1021A000011004A90CA8FFF7DBFCDDE90D020C9B74
:1021B0000F994FF0000B91461093009211B9791CC2
:1021C00000EB0109B7EB090003D4C0F1FF3B07F1B5
:1021D0000109A9EB0700019042E0012F00DA012775
:1021E0000021112F01DD112000E03846CDE900016A
:1021F00004A90CA8FFF7B4FCDDE90D010C9A0091CD
:102200004FF0000BB946109221070FD4009A4A45AF
:1022100003DA914601E0A9F10109B9F1010F05DDE9
:10222000109AA9F10101515C3029F4D0B84202DAC8
:1022300010F1040F03DA0121CDE9011010E00028AC
:1022400003DC8344A9EB000102E0411C494500DDA9
:102250008946A0EB0B00401C01904FF0004002901B
:10226000200705D40198484502DB4FF0FF3001906C
:1022700000208DF84B0002980DF14B07B0F1004F94
:1022800025D002200C902B200D90029800280CDA0B
:10229000404202902D200D9007E00A210298FDF7A0
:1022A000ECFF3031029007F8011D0C99481E0C908C
:1022B0000029F2DC02980028EFD1791E0D980870F1
:1022C000307800F0200040F0450007F8020D11A81A
:1022D000C01BC01D02901398007800B1012000EBD4
:1022E0000901019801EBE071029801440398401A3A
:1022F000401E0390E00306D453462146179A0398E4
:1023000000F05CF805441398007818B1524617990C
:1023100090476D1CE00323D553462146179A039836
:1023200000F04CF805441BE0BBF1000F07DB009800
:10233000584504DD1098179910F80B0001E0179923
:1023400030205246904701980BF1010B401E05F1D9
:102350000105019004D12E205246179990476D1C1B
:10236000B9F10001A9F10109DEDC05E017F8010B64
:102370005246179990476D1C0299481E02900029F9
:10238000F4DC53462146179A03989EE62D00000080
:102390002B000000200000002DE9F041044600253C
:1023A0001E461746880404D405E039462020B0476D
:1023B0006D1C641EF9D52846BDE8F0812DE9F04179
:1023C000044600251E469046C80301D5302700E08C
:1023D0002027880404D505E041463846B0476D1CE7
:1023E000641EF9D52846BDE8F0810A68531C0B60CD
:1023F0001070704702460848006800F0807048B1CD
:1024000000BF4FF0604000680028FAD0D0B24FF013
:102410006043187070470000FCED00E08AB00020B7
:102420000990FEF7FFF9FFF711FAFFF707F9FFF739
:102430009DF8FFF70FF9FEF7E1FFFFF76BF90021B9
:102440007A48FEF789FCFEF77BFD7948012142F2CC
:10245000A0524B1E774CE35CC35847F6F074A3437D
:1024600013434C1E734D2C5D035100BF724D00266B
:10247000002716B905F14C0701E06F4F4C373A467B
:102480006E4B0024102C09D14D1E6A4E755D05441B
:10249000EA604D1E755D0544AB6008E04D1E654E5B
:1024A000755D0544AA604D1E755D0544EB6000BF77
:1024B0005F48012102224B1E5E4CE35C03445B68D3
:1024C0006FF30F0313434C1E5A4D2C5D044463609D
:1024D00000BF00BF4A1E2B469A5C825842F002039E
:1024E0004A1E2C46A25C835000BF00BF4A1E2346F2
:1024F0009A5C825842F008034A1EA25C835000BFD7
:1025000000BF4A1E23469A5C825842F001034A1ECD
:10251000A25C835000BF00BF4748806840F00100C4
:102520004549886000BF2020099002E00998401EBC
:10253000099009980028F9D100BF3F48806840F011
:1025400004003D49886000BF00BF00BF3A48806872
:10255000C0F380000028F8D139A0FEF7D8FC012193
:102560000020FEF7A6FC39A0FEF7D1FC02210020D6
:10257000FEF79FFC4FF4FA60FEF732F9FEF790FC8D
:1025800053E000BF2C48806840F4A0002A498860CE
:1025900000BF00BF304800780028FBD000202E4943
:1025A000087000BF0EE0254931F8101040F6CB420C
:1025B000514340F6FF72B1FBF2F108AA22F8101065
:1025C000411CC8B20228EEDBBDF82200FDF73DFE3B
:1025D0008246FDF73FFE06460022204BFDF7C6FD72
:1025E00004460D46BDF82000FDF72FFE8246FDF79C
:1025F00031FE06460022194BFDF7B8FD80464246E3
:102600000B4617A103A8CDE90045FFF785FA012184
:102610000020FEF74EFC03A8FEF779FC6420FEF7CD
:10262000D9FE03A911A0FFF767FAAAE72C00002042
:102630000000024010270008002401400400002090
:1026400054776F206368616E6E656C00566F6C74B2
:102650006D657465720000000C00002000408F4022
:1026600020252E336620252E33662000252E336646
:1026700020252E3366200D0A0000000070B50446A8
:102680000D464DB90F49097821F001010D4A11702D
:102690000846FEF74BFC08E00A49097841F00101C1
:1026A000084A11700846FEF741FC002626116420F6
:1026B000FEF77CF8304600F007F8204600F004F8FA
:1026C00070BD00000000002010B504462007040E75
:1026D0000E49097841EA0400FEF728FC0B49097805
:1026E00041F00401094A117041EA0400FEF71EFCA2
:1026F000C820FEF75BF80549097821F00401034A78
:10270000117041EA0400FEF711FC10BD000000202A
:10271000081C3044586C80000000000000000001DC
:102720000203040607080900000000010203040078
:1027300050270008000000202C000000401B00086B
:102740007C2700082C0000204C040000501B0008CF
:102750000000000000000000000000000000000079
:102760000000000000000000000000000024F40051
:0C2770000100000010000000000000004C
:04000005080000ED02
:00000001FF
